:100000000C943E000C945B000C945B000C945B0021
:100010000C945B000C945B000C945B000C945B00F4
:100020000C945B000C945B000C945B000C945B00E4
:100030000C945B000C948F020C945B000C945B009E
:100040000C9469020C945B000C945B000C945B00B4
:100050000C940D030C94E7030C945B000C945B0070
:100060000C945B000C945B000C945B000C945B00A4
:100070000C945B000C945B000C945B0011241FBE7D
:10008000CFEFD8E0DEBFCDBF15E0A0E0B1E0E4ECFB
:10009000F8E102C005900D92A233B107D9F728E02C
:1000A000A2E3B5E001C01D92AF37B207E1F70E94AD
:1000B000FD010C94600C0C940000EF92FF920F93E2
:1000C0001F93CF93DF938C3319F4109252053BC1E9
:1000D0008C3231F4809152058F5F8093520533C189
:1000E0008E3309F0ADC089E495E00E943309C82F32
:1000F0008093440581E495E00E9433098C0180934C
:10010000510585E495E00E943309D82F80933A0584
:100110008DE495E00E9433097C01809343058BE3D5
:1001200095E00E94330990934C0580934B05C130B4
:10013000E9F400933905D0931701E09216019093EA
:100140001501809314011127B701772721E030E0D2
:10015000AC018D2F90E00E94270661E070E0809155
:100160001401909115010E947D061EC0C230E1F479
:1001700000933805D0931301E0921201909311017E
:10018000809310011127B701772722E030E0AC01FE
:100190008D2F90E00E94270662E070E080911001B0
:1001A000909111010E947D06E9E4F5E001900020A4
:1001B000E9F73197AF014954554060E070E089E4B8
:1001C00095E00E945109E1E4F5E001900020E9F793
:1001D0003197AF014154554060E070E081E495E013
:1001E0000E945109E5E4F5E001900020E9F731971C
:1001F000AF014554554060E070E085E495E00E9411
:100200005109EDE4F5E001900020E9F73197AF01E5
:100210004D54554060E070E08DE495E00E94510936
:10022000EBE3F5E001900020E9F73197AF014B5384
:10023000554060E070E08BE395E00E94510983C077
:10024000909152059230D9F128F4992351F09130D0
:10025000F9F079C0933009F449C0943009F45DC0D5
:1002600072C01F928F9389E495E09F938F9328E14A
:1002700035E03F932F939F938F930E9476098DB71C
:100280009EB708960FB6F8949EBF0FBE8DBF5BC099
:100290001F928F9381E495E09F938F9328E135E03F
:1002A0003F932F939F938F930E9476098DB79EB7AC
:1002B00008960FB6F8949EBF0FBE8DBF44C01F9224
:1002C0008F9385E495E09F938F9328E135E03F93EA
:1002D0002F939F938F930E9476098DB79EB70896B0
:1002E0000FB6F8949EBF0FBE8DBF2DC01F928F9387
:1002F0008DE495E09F938F9328E135E03F932F9312
:100300009F938F930E9476098DB79EB708960FB67C
:10031000F8949EBF0FBE8DBF16C01F928F938BE3C4
:1003200095E09F938F9328E135E03F932F939F9320
:100330008F930E9476098DB79EB708960FB6F894F2
:100340009EBF0FBE8DBFDF91CF911F910F91FF9088
:10035000EF9008951092B9008CE58093B80008954D
:1003600094EA9093BC00ECEBF0E090819923ECF7D9
:100370009091B900987F983011F09031A1F480935A
:10038000BB0084E88093BC00ECEBF0E08081882324
:10039000ECF79091B900987F983139F081E0903472
:1003A00029F480E0089581E0089580E0089584E9CB
:1003B0008093BC00ECEBF0E0808184FDFDCF0895DC
:1003C0008093BB0084E88093BC00ECEBF0E080817C
:1003D0008823ECF79091B900987F81E0983209F476
:1003E00080E0089584E88093BC00ECEBF0E080812D
:1003F0008823ECF78091BB0008958FEF81B987B90E
:100400008AB90E9447040E94580440E060E875E2FF
:1004100080E090E00E94A2030091390510E0409135
:100420001401509115016091160170E0809117013F
:1004300021E030E090E00E9427060091380510E0AE
:1004400040911001509111016091120170E0809172
:10045000130122E030E090E00E94270661E070E0A6
:1004600080911401909115010E947D0662E070E078
:1004700080911001909111010E947D060E94AA01B5
:1004800078948DE195E09F938F930E9460090F907F
:100490000F90CEE2D5E001E010E080910001909154
:1004A0000101892BA1F40E942904809332059093C5
:1004B00033059F938F93DF93CF930E94600910932E
:1004C0000101009300010F900F900F900F9000001A
:1004D000E4CF1F920F920FB60F9211248F939F9328
:1004E00080913405909135058436910541F4109240
:1004F000010110920001109235051092340580918F
:100500003405909135050196909335058093340517
:100510009F918F910F900FBE0F901F9018951F9273
:100520000F920FB60F9211242F934F935F936F93F7
:100530007F938F939F93AF93BF93EF93FF934091DC
:100540007508509176086091770870917808872F28
:100550009927AA27BB278093370590E0FC01EF5825
:10056000F84F208120935405809171089091720872
:10057000A0917308B0917408480F591F6A1F7B1F20
:1005800040937508509376086093770870937808C5
:1005900040916D0650916E0660916F0670917006E5
:1005A000872F9927AA27BB278093360590E0FC0167
:1005B000EF58F94F8081809353058091690690919F
:1005C0006A06A0916B06B0916C06480F591F6A1F0E
:1005D0007B1F40936D0650936E0660936F06709379
:1005E000700622B9809153058C7F8BB98091530599
:1005F00020E4829FC001112488B9FF91EF91BF913F
:10060000AF919F918F917F916F915F914F912F91BA
:100610000F900FBE0F901F9018951F920F920FB65C
:100620000F9211241F932F933F934F935F936F93D8
:100630007F938F939F93AF93BF93CF93DF93EF936A
:10064000FF93C6ECD0E01881812F0E945D001883D3
:10065000FF91EF91DF91CF91BF91AF919F918F91DA
:100660007F916F915F914F913F912F911F910F90CB
:100670000FBE0F901F901895CF93C82F8A3019F492
:100680008DE00E943C039FB7907802C0992329F126
:10069000809156058F3FD1F3F894E091550581E0A4
:1006A0008E0F80935505F0E0E95AFA4FC083809190
:1006B00056058F5F80935605809155058F3F11F445
:1006C00010925505E1ECF0E08081806280839923EF
:1006D00039F0789480E090E005C081E090E002C0BD
:1006E00080E090E0CF910895809168068823E1F33F
:1006F0002FB72078F894809156063091680690E0E4
:10070000831B91095AF4E091560680916806F0E047
:10071000E81BF109E959F94F80810AC0E0915606BA
:1007200080916806F0E0E81BF109E95AF94F8081F1
:1007300090916806915090936806222309F078946E
:1007400090E00895109255051092560510925606A5
:100750001092680610926706DC01CB01880F991F82
:10076000AA1FBB1F880F991FAA1FBB1F9C01AD01A9
:10077000220F331F441F551F60E07DE281E391E0AB
:100780000E94F208BA01A9014F5F5F4F6F4F7F4F80
:10079000DB01CA011AF40196A11DB11DB595A795FB
:1007A0009795879501979093C5008093C400E1ECDD
:1007B000F0E088E18083808180688083E9E7F8E069
:1007C00082E091E0938382839183808308951F92D6
:1007D0000F920FB60F9211242F938F939F93EF9345
:1007E000FF9380915605882329F18091550520912A
:1007F000560590E0821B91095AF4E09155058091CD
:100800005605F0E0E81BF109EA5AF94F90810AC059
:10081000E091550580915605F0E0E81BF109E95A91
:10082000FA4F9081809156058150809356059093A0
:10083000C60005C0E1ECF0E080818F7D8083FF91F0
:10084000EF919F918F912F910F900FBE0F901F905E
:100850001895CF9380E90E94B0018130A1F08EEE0F
:100860000E94E00180E90E94B0018AEA0E94E00152
:1008700081E90E94B0010E94F201C82F0E94D701B5
:100880008C2F90E002C088EE93E0CF91089582EC27
:1008900087BD84B584BD84B5826084BD85B585601F
:1008A00085BDEEE6F0E0808182608083A99A08959C
:1008B00087EC90E0909389008093880010928000EC
:1008C00089E08093810082E080936F0086BB089569
:1008D0008F929F92AF92BF92CF92DF92EF92FF9250
:1008E0000F931F93CF93DF937C01EA01C058D10986
:1008F0000230110509F4B0C044F40115110571F07E
:100900000130110509F459C094C10330110509F4EF
:10091000F2C00430110509F43EC18BC1072E000C52
:10092000880B990B0E94F9074B015C01F701E85E07
:10093000FB4F608170E080E090E00E94F9076B015E
:100940007C0120E030E04FE753E4C501B4010E9490
:100950004F079B01AC01C701B6010E9485086B01DE
:100960007C01A501940160E070E08FE793E40E94B0
:10097000E20620E030E04FE753E40E944F0720E01A
:1009800030E040E053E40E9485089B01AC01C701C0
:10099000B6010E94E3066B017C01BE01DD0F880BEE
:1009A000990B0E94F9079B01AC01C701B6010E9497
:1009B000E3060E94C1079B013CC1072E000C880B77
:1009C000990B0E94F9074B015C01F701E85EFC4FAF
:1009D000608170E080E090E00E94F9076B017C018B
:1009E00020E030E04FE753E4C501B4010E944F0717
:1009F0009B01AC01C701B6010E9485086B017C0117
:100A0000A501940160E070E08FE793E40E94E206A4
:100A100020E030E04FE753E40E944F0720E030E051
:100A200040E053E40E9485089B01AC01C701B60178
:100A30000E94E3066B017C01BE01DD0F880B990B60
:100A40000E94F9079B01AC01C701B6010E94E306B1
:100A50000E94C1079B01EDC0072E000C880B990B6B
:100A60000E94F9074B015C01F701E85EFD4F6081D0
:100A700070E080E090E00E94F9076B017C0120E0CB
:100A800030E04FE753E4C501B4010E944F079B01DA
:100A9000AC01C701B6010E9485086B017C01A5016C
:100AA000940160E070E08FE793E40E94E20620E0AA
:100AB00030E04FE753E40E944F0720E030E040E091
:100AC00053E40E9485089B01AC01C701B6010E9456
:100AD000E3066B017C01BE01DD0F880B990B0E94C0
:100AE000F9079B01AC01C701B6010E94E3060E9411
:100AF000C1079B019EC0072E000C880B990B0E941A
:100B0000F9074B015C01E7E1F3E0EE19FF096081B1
:100B100070E080E090E00E94F9076B017C0120E02A
:100B200030E04FE753E4C501B4010E944F079B0139
:100B3000AC01C701B6010E9485086B017C01A501CB
:100B4000940160E070E08FE793E40E94E20620E009
:100B500030E04FE753E40E944F0720E030E040E0F0
:100B600053E40E9485089B01AC01C701B6010E94B5
:100B7000E3066B017C01BE01DD0F880B990B0E941F
:100B8000F9079B01AC01C701B6010E94E3060E9470
:100B9000C1079B014EC0072E000C880B990B0E94C9
:100BA000F9074B015C01F701E85EFE4F608170E0E0
:100BB00080E090E00E94F9076B017C0120E030E0CA
:100BC0004FE753E4C501B4010E944F079B01AC01FC
:100BD000C701B6010E9485086B017C01A501940143
:100BE00060E070E08FE793E40E94E20620E030E0EE
:100BF0004FE753E40E944F0720E030E040E053E429
:100C00000E9485089B01AC01C701B6010E94E30662
:100C10004B015C01BE01DD0F880B990B0E94F907A7
:100C20009B01AC01C501B4010E94E3060E94C1070B
:100C30009B01C901DF91CF911F910F91FF90EF9020
:100C4000DF90CF90BF90AF909F908F9008956F925C
:100C50007F928F929F92AF92BF92CF92DF92EF924C
:100C6000FF920F931F93CF93DF933C017B016A01A7
:100C7000580121303105C1F40F2EF1E78F2EF7E036
:100C80009F2EF02DC0E0D0E085019601A701B301B1
:100C9000CE010E946804F40181934F012196C11591
:100CA000F1E0DF0789F71AC022303105B9F40F2EC1
:100CB000F1E78F2EF6E09F2EF02DC0E0D0E0850109
:100CC0009601A701B301CE010E946804F40181934B
:100CD0004F012196C115F1E0DF0789F7DF91CF9130
:100CE0001F910F91FF90EF90DF90CF90BF90AF904A
:100CF0009F908F907F906F9008956130710589F576
:100D00001092750810927608109277081092780861
:100D1000BC01990F880B990B0E94F90720E030E085
:100D200040E853E40E94850820E030E040E85BE4BE
:100D30000E94850820E030E543EC57E40E944F070D
:100D400020E030E040E05FE30E94E3060E94C80735
:100D5000609371087093720880937308909374087D
:100D6000089510926D0610926E0610926F06109202
:100D70007006BC01990F880B990B0E94F90720E0BF
:100D800030E040E853E40E94850820E030E040E88D
:100D90005BE40E94850820E030E543EC57E40E94C4
:100DA0004F0720E030E040E05FE30E94E3060E944E
:100DB000C8076093690670936A0680936B069093E8
:100DC0006C0608955058BB27AA270E94FA060C9477
:100DD0004B080E943D0838F00E94440820F039F486
:100DE0009F3F19F426F40C943A080EF4E095E7FBC3
:100DF0000C943408E92F0E945C0858F3BA17620774
:100E000073078407950720F079F4A6F50C947E0803
:100E10000EF4E0950B2EBA2FA02D0B01B901900115
:100E20000C01CA01A0011124FF27591B99F0593F59
:100E300050F4503E68F11A16F040A22F232F342FA1
:100E40004427585FF3CF469537952795A795F040EF
:100E50005395C9F77EF41F16BA0B620B730B840B04
:100E6000BAF09150A1F0FF0FBB1F661F771F881FBC
:100E7000C2F70EC0BA0F621F731F841F48F4879514
:100E800077956795B795F7959E3F08F0B0CF939506
:100E9000880F08F09927EE0F9795879508950E947F
:100EA00063070C944B080E94440858F00E943D08C8
:100EB00040F029F45F3F29F00C94340851110C9450
:100EC0007F080C943A080E945C0868F39923B1F3F8
:100ED000552391F3951B550BBB27AA276217730760
:100EE000840738F09F5F5F4F220F331F441FAA1FF4
:100EF000A9F335D00E2E3AF0E0E832D091505040B0
:100F0000E695001CCAF72BD0FE2F29D0660F771F5D
:100F1000881FBB1F261737074807AB07B0E809F043
:100F2000BB0B802DBF01FF2793585F4F3AF09E3FC8
:100F3000510578F00C9434080C947F085F3FE4F37B
:100F4000983ED4F3869577956795B795F7959F5F0B
:100F5000C9F7880F911D9695879597F90895E1E057
:100F6000660F771F881FBB1F621773078407BA07B6
:100F700020F0621B730B840BBA0BEE1F88F7E09511
:100F800008950E94C8076894B1110C947F080895D1
:100F90000E94640888F09F5798F0B92F9927B7519D
:100FA000B0F0E1F0660F771F881F991F1AF0BA950D
:100FB000C9F714C0B13091F00E947E08B1E00895E5
:100FC0000C947E08672F782F8827B85F39F0B93FD7
:100FD000CCF3869577956795B395D9F73EF49095C0
:100FE0008095709561957F4F8F4F9F4F0895E8943E
:100FF00009C097FB3EF490958095709561957F4F61
:101000008F4F9F4F9923A9F0F92F96E9BB2793950E
:10101000F695879577956795B795F111F8CFFAF41E
:10102000BB0F11F460FF1BC06F5F7F4F8F4F9F4F4F
:1010300016C0882311F096E911C0772321F09EE8AD
:10104000872F762F05C0662371F096E8862F70E013
:1010500060E02AF09A95660F771F881FDAF7880FED
:101060009695879597F9089597F99F6780E870E0BE
:1010700060E008959FEF80EC089500240A9416160E
:10108000170618060906089500240A941216130676
:10109000140605060895092E0394000C11F4882304
:1010A00052F0BB0F40F4BF2B11F460FF04C06F5F20
:1010B0007F4F8F4F9F4F089557FD9058440F551FF6
:1010C00059F05F3F71F04795880F97FB991F61F0CA
:1010D0009F3F79F087950895121613061406551F41
:1010E000F2CF4695F1DF08C0161617061806991FAD
:1010F000F1CF86957105610508940895E894BB27A2
:1011000066277727CB0197F908950E9498080C94D9
:101110004B080E943D0838F00E94440820F09523B7
:1011200011F00C9434080C943A0811240C947F08A4
:101130000E945C0870F3959FC1F3950F50E0551F16
:10114000629FF001729FBB27F00DB11D639FAA271C
:10115000F00DB11DAA1F649F6627B00DA11D661F6B
:10116000829F2227B00DA11D621F739FB00DA11D8C
:10117000621F839FA00D611D221F749F3327A00D46
:10118000611D231F849F600D211D822F762F6A2FE2
:1011900011249F5750409AF0F1F088234AF0EE0F47
:1011A000FF1FBB1F661F771F881F91505040A9F774
:1011B0009E3F510580F00C9434080C947F085F3FEB
:1011C000E4F3983ED4F3869577956795B795F795B0
:1011D000E7959F5FC1F7FE2B880F911D9695879528
:1011E00097F90895052E97FB1EF400940E940909B3
:1011F00057FD07D00E94110907FC03D04EF40C9450
:10120000090950954095309521953F4F4F4F5F4FBD
:10121000089590958095709561957F4F8F4F9F4F62
:101220000895A1E21A2EAA1BBB1BFD010DC0AA1F27
:10123000BB1FEE1FFF1FA217B307E407F50720F03F
:10124000A21BB30BE40BF50B661F771F881F991FBA
:101250001A9469F760957095809590959B01AC0103
:10126000BD01CF010895FC0188279927E8942191B9
:101270002032E9F3293010F02E30C8F32B3241F040
:101280002D3239F4689404C00E945809820F911DD0
:10129000219120532A30C0F31EF4909581959F4FE1
:1012A0000895DC0101C06D9341505040E0F708956E
:1012B0007AE0979F902D879F802D910D112408959E
:1012C000A0E0B0E0E6E6F9E00C94390CAE014B5F2B
:1012D0005F4FFA0161917191AF0180917B0890910C
:1012E0007C080E949809E2E00C94550CAEE0B0E056
:1012F000ECE7F9E00C94370C0D891E8986E08C83AD
:101300001A8309838FEF9FE79E838D83AE01475E2B
:101310005F4F6F89788DCE0101960E949809EF8109
:10132000F885E00FF11F10822E96E4E00C94530C28
:10133000ABE0B0E0EEE9F9E00C94290C6C017B0124
:101340008A01FC0117821682838181FFCCC1CE0104
:1013500001963C01F6019381F70193FD859193FF7E
:1013600081917F01882309F4BAC1853239F493FD54
:10137000859193FF81917F01853229F4B60190E038
:101380000E948F0BE7CF912C212C312CFFE1F3151C
:10139000D8F08B3279F038F4803279F08332A1F4CE
:1013A000232D20611DC08D3261F0803369F4232D1F
:1013B000216016C0832D8260382EE32DE4603E2E1E
:1013C0002AC0F32DF8601DC037FC2DC020ED280F7A
:1013D0002A3040F08E32B9F436FC81C1232D2064CE
:1013E000322E19C036FE06C08AE0989E200D1124C8
:1013F000922E11C0EAE02E9E200D1124222EF32DF4
:10140000F0623F2E08C08C3621F4832D8068382E80
:1014100002C0883641F4F70193FD859193FF8191D5
:101420007F018111B3CF982F9F7D9554933028F47D
:101430000C5F1F4F9FE399830DC0833631F08337D4
:1014400071F0833509F059C021C0F801808189838A
:101450000E5F1F4F88248394912C530113C02801E1
:10146000F2E04F0E511CF801A080B18036FE03C09F
:10147000692D70E002C06FEF7FEFC5010E94840B01
:101480004C018201F32DFF773F2E16C0280122E088
:10149000420E511CF801A080B18036FE03C0692DB8
:1014A00070E002C06FEF7FEFC5010E94790B4C0125
:1014B000F32DF0683F2E820133FC1BC0822D90E09B
:1014C00088169906B0F4B60180E290E00E948F0B76
:1014D0002A94F4CFF50137FC859137FE81915F01A5
:1014E000B60190E00E948F0B21102A9421E0821A0D
:1014F00091088114910471F7E8C0843611F089369F
:1015000041F5F80137FE07C06081718182819381C6
:101510000C5F1F4F08C060817181072E000C880B83
:10152000990B0E5F1F4FF32DFF763F2E97FF09C0DB
:1015300090958095709561957F4F8F4F9F4FF06884
:101540003F2E2AE030E0A3010E94CB0B882E8618A4
:1015500045C0853731F4232D2F7EB22E2AE030E0AE
:1015600025C0932D997FB92E8F36C1F018F4883598
:1015700079F0B5C0803719F0883721F0B0C0E92F75
:10158000E061BE2EB4FE0DC0FB2DF460BF2E09C07D
:1015900034FE0AC0292F2660B22E06C028E030E0B3
:1015A00005C020E130E002C020E132E0F801B7FEE2
:1015B00007C060817181828193810C5F1F4F06C0DB
:1015C0006081718180E090E00E5F1F4FA3010E9457
:1015D000CB0B882E8618FB2DFF773F2E36FE0DC0D5
:1015E000232D2E7FA22E891458F434FE0BC032FC1A
:1015F00009C0832D8E7EA82E05C0B82CA32C03C055
:10160000B82C01C0B92CA4FE0FC0FE01E80DF11DDD
:101610008081803321F49A2D997EA92E09C0A2FEE3
:1016200006C0B394B39404C08A2D867809F0B394AD
:10163000A3FC11C0A0FE06C0B21488F4280C922CA2
:101640009B180EC0B21460F4B60180E290E00E94D4
:101650008F0BB394F7CFB21418F42B1802C0982C48
:10166000212CA4FE10C0B60180E390E00E948F0BF5
:10167000A2FE17C0A1FC03C088E790E002C088E585
:1016800090E0B6010CC08A2D867859F0A1FE02C008
:101690008BE201C080E2A7FC8DE2B60190E00E94DF
:1016A0008F0B891438F4B60180E390E00E948F0B11
:1016B0009A94F7CF8A94F301E80DF11D8081B60169
:1016C00090E00E948F0B8110F5CF222009F442CECA
:1016D000B60180E290E00E948F0B2A94F6CFF601CB
:1016E0008681978102C08FEF9FEF2B96E2E10C94E9
:1016F000450CFC010590615070400110D8F78095B1
:1017000090958E0F9F1F0895FC01615070400190CD
:101710000110D8F7809590958E0F9F1F08950F9315
:101720001F93CF93DF93FB01238121FD03C08FEF34
:101730009FEF2CC022FF16C046815781248135813E
:101740004217530744F4A081B1819D012F5F3F4FA1
:10175000318320838C93268137812F5F3F4F3783DE
:10176000268314C08B01EC01FB010084F185E02D80
:101770000995892BE1F6D80116968D919C911797C2
:10178000019617969C938E931697CE01DF91CF9179
:101790001F910F910895FA01AA27283051F12031A5
:1017A00081F1E8946F936E7F6E5F7F4F8F4F9F4FF5
:1017B000AF4FB1E03ED0B4E03CD0670F781F891F37
:1017C0009A1FA11D680F791F8A1F911DA11D6A0F05
:1017D000711D811D911DA11D20D009F468943F91B8
:1017E0002AE0269F11243019305D3193DEF6CF01B7
:1017F0000895462F4770405D4193B3E00FD0C9F77D
:10180000F6CF462F4F70405D4A3318F0495D31FDE9
:101810004052419302D0A9F7EACFB4E0A69597953C
:10182000879577956795BA95C9F700976105710512
:1018300008959B01AC010A2E06945795479537955C
:101840002795BA95C9F7620F731F841F951FA01DB6
:1018500008952F923F924F925F926F927F928F9254
:101860009F92AF92BF92CF92DF92EF92FF920F932F
:101870001F93CF93DF93CDB7DEB7CA1BDB0B0FB639
:10188000F894DEBF0FBECDBF09942A8839884888F6
:101890005F846E847D848C849B84AA84B984C8848C
:1018A000DF80EE80FD800C811B81AA81B981CE0F83
:1018B000D11D0FB6F894DEBF0FBECDBFED01089568
:0418C000F894FFCFCA
:1018C400010000000003000000003C03740300005A
:1018D400E80380FFE80380FFFFFFFFFFFFFFFFFF38
:1018E400FFFFFFFFFFFFFFFFFFFFFFFFFFFFFFFF04
:1018F400FFFFFFFFFFFFFFFFFFFFFFFFFFFFFFFFF4
:10190400FFFFFFFFFFFFFFFFFFFFFFFFFFFFFFFFE3
:10191400FFFFFFFFFFFFFFFFFFFFFFFFFFFFFFFFD3
:10192400FFFFFFFFFFFFFFFFFFFFFFFFFFFFFFFFC3
:10193400FFFFFFFFFFFFFFFFFFFFFFFFFFFFFFFFB3
:10194400FFFFFFFFFFFFFFFFFFFFFFFFFFFFFFFFA3
:10195400FFFFFFFFFFFFFFFF00000000000000008B
:101964000000000000000000000000000000000073
:101974000000000000000000000000000000000063
:101984000000000000000000000000000000000053
:101994000000000000000000000000000000000043
:1019A4000000000000000000000000000000000033
:1019B4000000000000000000000000000000000023
:1019C4000000000000000000000000000000000013
:1019D40000000000000000000001020304050607E7
:1019E40008090A0B0C0D0E0F1011121314151617FB
:1019F40018191A1B1C1D1E1F2021222324252627EB
:101A040028292A2B2C2D2E2F3031323334353637DA
:101A140038393A3B3C3D3E3F4041424344454647CA
:101A240048494A4B4C4D4E4F5051525354555657BA
:101A340058595A5B5C5D5E5F6061626364656667AA
:101A440068696A6B6C6D6E6F70717273747576779A
:101A540078797A7B7C7D7E7F80818283848586878A
:101A640088898A8B8C8D8E8F90919293949596977A
:101A740098999A9B9C9D9E9FA0A1A2A3A4A5A6A76A
:101A8400A8A9AAABACADAEAFB0B1B2B3B4B5B6B75A
:101A9400B8B9BABBBCBDBEBFC0C1C2C3C4C5C6C74A
:101AA400C8C9CACBCCCDCECFD0D1D2D3D4D5D6D73A
:101AB400D8D9DADBDCDDDEDFE0E1E2E3E4E5E6E72A
:101AC400E8E9EAEBECEDEEEFF0F1F2F3F4F5F6F71A
:101AD400F8F9FAFBFCFDFEFF020406080A0C0E10DE
:101AE400121416181A1C1E20222426282A2C2E30E2
:101AF400323436383A3C3E40424446484A4C4E50D2
:101B0400525456585A5C5E60626466686A6C6E70C1
:101B1400727476787A7C7E8081838587898B8D8FB9
:101B240091939597999B9D9FA1A3A5A7A9ABADAFB1
:101B3400B1B3B5B7B9BBBDBFC1C3C5C7C9CBCDCFA1
:101B4400D1D3D5D7D9DBDDDFE1E3E5E7E9EBEDEF91
:101B5400F1F3F5F7F9FBFDFFFDFBF9F7F5F3F1EF11
:101B6400EDEBE9E7E5E3E1DFDDDBD9D7D5D3D1CF91
:101B7400CDCBC9C7C5C3C1BFBDBBB9B7B5B3B1AF81
:101B8400ADABA9A7A5A3A19F9D9B99979593918F71
:101B94008D8B8987858381807E7C7A787674727058
:101BA4006E6C6A68666462605E5C5A585654525041
:101BB4004E4C4A48464442403E3C3A383634323031
:101BC4002E2C2A28262422201E1C1A181614121021
:101BD4000E0C0A0806040200808386898C8F929575
:101BE400989B9EA2A5A7AAADB0B3B6B9BCBEC1C40A
:101BF400C6C9CBCED0D3D5D7DADCDEE0E2E4E6E862
:101C0400EAEBEDEEF0F1F3F4F5F6F8F9FAFAFBFC91
:101C1400FDFDFEFEFEFFFFFFFFFFFFFFFEFEFEFDDC
:101C2400FDFCFBFAFAF9F8F6F5F4F3F1F0EEEDEB5E
:101C3400EAE8E6E4E2E0DEDCDAD7D5D3D0CECBC9FD
:101C4400C6C4C1BEBCB9B6B3B0ADAAA7A5A29E9B7B
:101C54009895928F8C898683807C797673706D6A6F
:101C64006764615D5A5855524F4C494643413E3B67
:101C7400393634312F2C2A282523211F1D1B1917EF
:101C8400151412110F0E0C0B0A090706050504039F
:101C94000202010101000000000000000101010234
:101CA40002030405050607090A0B0C0E0F11121492
:101CB4001517191B1D1F212325282A2C2F313436D3
:101CC400393B3E414346494C4F5255585A5D616435
:101CD400676A6D707376797C25732563007374610C
:101CE4007274696E6720616761696E0A0D0025640C
:021CF4000A00E4
:00000001FF
